:020000040800F2
:10000000F84300206501000891150008E914000874
:1000100019150008C3040008E56800080000000086
:100020000000000000000000000000004561000822
:1000300041130008000000006F02000891620008F0
:100040007F0100087F0100087F0100087F01000890
:100050007F0100087F0100087F0100087F01000880
:100060007F0100087F0100087F0100087F01000870
:100070007F0100087F0100087F0100087F01000860
:100080007F0100087F0100087F0100087F01000850
:10009000C90400087F0100087F0100087F010008F3
:1000A0007F0100087F0100087F0100087F01000830
:1000B0007F010008A56300087F0100087F01000898
:1000C0007F0100087F0100087F0100087F01000810
:1000D0007F0100087F0100087F0100087F01000800
:1000E0007F0100087F0100087F0100080000000078
:1000F0000000000000000000000000000000000000
:100100000000000000000000816400087F0100087A
:100110007F0100087F0100087F0100087F010008BF
:100120007F0100087F0100087F0100087F010008AF
:100130007F0100087F0100087F0100087F0100089F
:10014000990600087F0100087F0100087F01000870
:10015000DFF80CD000F032F800480047F96E0008D4
:10016000F84300200648804706480047FEE7FEE7C0
:10017000FEE7FEE7FEE7FEE7FEE7FEE7FEE7FEE757
:10018000AD6200085101000872B6704762B6704750
:10019000EFF3108072B6704780F31088704730BF5D
:1001A000704720BF7047B0FA80F0704790FAA0F017
:1001B000B0FA80F0704790FAA0F07047064C074DF7
:1001C00006E0E06840F0010394E807009847103427
:1001D000AC42F6D3FFF7C0FFDC770008FC770008DD
:1001E00070B58C1810F8015B15F0070301D110F8F9
:1001F000013B2A1106D110F8012B03E010F8016B26
:1002000001F8016B5B1EF9D12B0705D40023521EA8
:100210000DD401F8013BFAE710F8013BCB1A921C10
:1002200003E013F8015B01F8015B521EF9D5A1420E
:10023000D8D3002070BD00001D484FF6FF7101703B
:10024000002080F309881B48016881F308881A4858
:100250004FF08051016062B6FEE717484FF08051C1
:100260000160704714484FF080510160704772B6CA
:10027000EFF3098028B1203880E8F00F0F490968B2
:10028000086000B50E4880475DF804EB0D480E4944
:100290000A78027009480D490A680260106890E8FF
:1002A000F00F203080F309884EF0040E62B67047DC
:1002B00022ED00E0D401002004ED00E0CC0100209C
:1002C000D92A00085A0100205B010020D00100203B
:1002D00021B1826842F00102826003E0826822F06C
:1002E00001028260704721B1826842F480728260AC
:1002F00003E0826822F480728260704710B5044681
:100300001248844208D10121401505F043FE002126
:10031000601505F03FFE17E00D48844208D1012129
:10032000001505F037FE0021201505F033FE0BE027
:100330000848844208D10121C80305F02BFE0021A2
:100340004FF4004005F026FE10BD000000240140DF
:1003500000280140003C0140014600208A6802F06C
:1003600004020AB1012000E000207047014600208D
:100370008A6802F008020AB1012000E000207047FC
:1003800030B502460020002350680F4C20400D7904
:100390000C6844EA05242043506090680B4C2040D0
:1003A000D1E902542C434D7944EA4504204390603E
:1003B000D06A20F470000C7C641EE4B2234340EA4F
:1003C0000350D06230BD0000FFFEF0FFFDF7F1FFEB
:1003D000F0B504460D4600200021092D11DDE0682E
:1003E000A5F10A0606EB4607072606FA07F1884339
:1003F000A5F10A0606EB460603FA06F10843E0609B
:100400000CE0206905EB4507072606FA07F188434B
:1004100005EB450603FA06F108432061072A0FDAC7
:10042000606B561E06EB86071F2606FA07F1884307
:10043000561E06EB860605FA06F10843606322E0C5
:100440000D2A0FDA206BD61F06EB86071F2606FA49
:1004500007F18843D61F06EB860605FA06F1084326
:10046000206310E0E06AA2F10D0606EB86071F2666
:1004700006FA07F18843A2F10D0606EB860605FA97
:1004800006F10843E062F0BD816841F00801816037
:10049000704721B1826842F4A002826003E0826862
:1004A00022F4A00282607047816841F004018160FB
:1004B000704700B585B0684605F07CFD019805B031
:1004C00000BD00BFFEE7000030B589B00025002464
:1004D00003AA0021674800F0DAFBDDF8170001905D
:1004E000DDF81B0002900398C0F34315039800F059
:1004F0001F04022D7ED1092C13D101205E49086012
:100500005E4908705E48BDF817108180BDF817106D
:1005100001810298B0F1883F02D059490298C86021
:10052000A5E00A2C13D101205349086053490870F3
:100530005448BDF817108180BDF81710018102984A
:10054000B0F1883FECD04F490298C8608FE00B2C87
:1005500013D1012048490860484908704A48BDF84D
:1005600017108180BDF8171001810298B0F1883F03
:100570007DD045490298C86079E00C2C13D1012048
:100580003D4908603D4908704048BDF8171081801A
:10059000BDF8171001810298B0F1883F67D03B4940
:1005A0000298C86063E00D2C0AD10120334908701D
:1005B0003748DDF817100160DDF81B10416056E088
:1005C0000E2C03D101202D49087050E00F2C42D190
:1005D00001202A4908709DF8170088280DD09DF841
:1005E0001800882809D00020254988700846BDF8E1
:1005F000171000E033E0A0F801109DF819008828DA
:100600000AD09DF81A00882806D01E49BDF81900A6
:10061000A1F80100002088709DF81B0088280AD0EE
:100620009DF81C00882806D01749BDF81B00A1F8CA
:100630000100002088709DF81D00882817D09DF8C3
:100640001E00882813D01149BDF81D00A1F8010033
:10065000002088700BE000200849087007E008A817
:1006600000231A46194600900A4801F0D5FA09B04D
:1006700030BD0000006400404C0000200800002055
:100680005800002070000020A000002088000020FA
:10069000D82500209420002010B586B0002401AA9F
:1006A0000021134800F0F3FA01981B2808D19DF8A7
:1006B0001200104908709DF81100487006B010BD76
:1006C00001982B2807D19DF812000A4988709DF8DF
:1006D0001100C870F2E701983B2807D19DF812007D
:1006E000044908719DF811004871E7E700BFE5E78C
:1006F00000680040B800002070B586B005460C4682
:100700004FF4C06600208DF80C008DF80D00082015
:100710008DF80E00052D03DA002D01DD2E4301E0DA
:1007200006B070BD019623208DF80F0040218DF892
:10073000101060218DF8111000218DF812108DF825
:1007400013408DF814108DF815108DF8161001A9AE
:10075000154800F014FB0020144908701449086083
:100760000CE0012000F026F811480068401C1049F8
:10077000086008460068642800D903E00B48007848
:100780000028EED000BF062C04D10021284606F038
:100790007DFD07E01F2C01D00F2C03D1012128463D
:1007A00006F074FD00BFBBE700680040DC000020DD
:1007B000D800002010B5002106E0092200BF130078
:1007C000A2F10102FBD1491C8142F6D310BD000009
:1007D00070B586B004460D464FF4C06600208DF813
:1007E0000C008DF80D0008208DF80E00052C03DAA2
:1007F000002C01DD264301E006B070BD86212046B5
:10080000FFF77AFF06212046FFF776FF01962320A7
:100810008DF80F0060218DF810108DF81110002157
:100820008DF812108DF813508DF814108DF81510E6
:100830008DF8161000200449087001A9034800F043
:100840009EFA00BFD8E70000DC00002000680040EE
:100850002DE9F04186B005460C4616461F464FF47A
:10086000C06800208DF80C008DF80D0008208DF870
:100870000E00052D04DA002D02DD48EA050802E02D
:1008800006B0BDE8F081CDF804803A4631462846EE
:1008900006F042FA00B9F3E723208DF80F00F021AB
:1008A0008DF810102F218DF8111009218DF81210DC
:1008B0008DF81340210A8DF81410210C8DF81510B5
:1008C000210E8DF8161000200E49087001A90E485F
:1008D00000F055FA00200D4908600CE00120FFF7F8
:1008E00069FF0A480068401C08490860084600681B
:1008F000642800D903E0034800780028EED000BF48
:1009000000BFBDE7DC00002000680040D8000020E8
:1009100070B586B005460C464FF4C06600208DF8D1
:100920000C008DF80D0008208DF80E00052D03DA5F
:10093000002D01DD2E4301E006B070BD019623209D
:100940008DF80F00F0218DF810102F218DF8111067
:1009500006218DF812108DF81340210A8DF814101D
:10096000210C8DF81510210E8DF8161000200F495E
:10097000087001A90E4800F002FA00200D49086035
:100980000CE00120FFF716FF0A480068401C0949E7
:10099000086008460068642800D903E0034800782E
:1009A0000028EED000BF00BFC6E70000DC0000203A
:1009B00000680040D800002070B586B005460C469F
:1009C0004FF4C06600208DF80C008DF80D00082053
:1009D0008DF80E00052D03DA002D01DD2E4301E018
:1009E00006B070BD019623208DF80F00F0218DF820
:1009F00010102F218DF8111007218DF812108DF88D
:100A00001340210A8DF81410210C8DF81510210EB9
:100A10008DF8161000200F49087001A90E4800F04B
:100A2000AEF900200D4908600CE00120FFF7C2FE7E
:100A30000A480068401C09490860084600686428A4
:100A400000D903E0034800780028EED000BF00BFC3
:100A5000C6E70000DC00002000680040D80000204D
:100A600010B50021837A012202FA03F13D4A12688F
:100A700042F001023B4B1A603A4A1C3212688A4328
:100A8000384B1C331A60027BCAB9364A0C321268E2
:100A90008A43344B0C331A604288C38842EA0343CA
:100AA000304A4032847A42F834300288838842EAFD
:100AB00003432C4A4032847A02EBC4025360027B27
:100AC000012A19D1274A0C3212680A43254B0C33EC
:100AD0001A604288038842EA0343224A4032847AF9
:100AE00042F83430C288838842EA03431D4A4032C8
:100AF000847A02EBC4025360C27A3AB9194A121DD1
:100B000012688A43174B1B1D1A6006E0154A121D16
:100B100012680A43134B1B1D1A60028932B9114A2D
:100B2000143212688A430F4B14331A600289012A67
:100B300006D10C4A143212680A430A4B14331A6065
:100B4000427B012A06D1074A1C3212680A43054B30
:100B50001C331A60034A126822F00102014B1A602A
:100B600010BD0000006600401AB143690B434361A9
:100B700002E043698B434361704730B50246002071
:100B80000023146824F002041460146844F0010483
:100B9000146000E05B1C546804F001041CB94FF6BB
:100BA000FF74A342F6D1546804F001040CB900208C
:100BB0006CE08C79012C04D1146844F0800414603A
:100BC00003E0146824F080041460CC79012C04D173
:100BD000146844F04004146003E0146824F04004F6
:100BE00014600C7A012C04D1146844F020041460C1
:100BF00003E0146824F0200414604C7A012C04D122
:100C0000146844F01004146003E0146824F0100425
:100C100014608C7A012C04D1146844F00804146028
:100C200003E0146824F008041460CC7A012C04D189
:100C3000146844F00404146003E0146824F004040D
:100C400014608C78A407CD7844EA05640D7944EAF1
:100C500005444D7944EA05540D886D1E2C43D4613A
:100C6000146824F001041460002300E05B1C546845
:100C700004F001041CB14FF6FF74A342F6D154688E
:100C800004F001040CB1002000E0012030BD10B5DB
:100C900000F5D87303EB01131B6803F00403137210
:100CA000137A53B900F5D87303EB01131B6840F2B4
:100CB000FF7404EA5353136009E000F5D87303EBA3
:100CC00001131B686FF0604404EAD303536000F51E
:100CD000D87303EB01131B6803F00203537200F592
:100CE000D87303EB01135B6803F00F03937200F5F5
:100CF000D87303EB01135B681B0AD37400F5D87338
:100D000003EB01139B68D37200F5D87303EB011357
:100D10009B681C0A147300F5D87303EB01139B68DE
:100D20001C0C547300F5D87303EB01139B681B0E66
:100D3000937300F5D87303EB0113DB68D37300F5ED
:100D4000D87303EB0113DB681C0A147400F5D87325
:100D500003EB0113DB681C0C547400F5D87303EB30
:100D60000113DB681B0E937421B9C36843F02003A1
:100D7000C36003E0036943F02003036110BD10B5B5
:100D800002460020936803F08063B3F1806F00D1C6
:100D900010E0936803F00063B3F1006F01D101200C
:100DA00008E0936803F08053B3F1805F01D1022023
:100DB00000E00420042874D002F5C07303EB001394
:100DC0001B6803F0010402F5C07303EB00131C6001
:100DD0000B7A7BB94B7A0C8843EA445302F5C07412
:100DE00004EB00142468234302F5C07404EB0014E0
:100DF000236010E00B7A4C6843EAC4034C7A234327
:100E000002F5C07404EB00142468234302F5C07497
:100E100004EB001423608B7A03F00F038B7202F54E
:100E2000C07303EB00135B6823F00F0402F5C0737B
:100E300003EB00135C6002F5C07303EB00135B6807
:100E40008C7A234302F5C07404EB001463608B7B3F
:100E50001C064B7B44EA03440B7B44EA0323CC7A15
:100E6000234302F5C07404EB0014A3608B7C1C06C2
:100E70004B7C44EA03440B7C44EA0323CC7B2343AE
:100E800002F5C07404EB0014E36002F5C07303EBD9
:100E900000131B6843F0010402F5C07303EB001359
:100EA0001C6010BD10B50246002321B1012907D0F6
:100EB00002290FD109E090681D4C00EA04030BE001
:100EC00090681C4C00EA040306E090681A4C00EAA3
:100ED000040301E0002300BF00BF184C181BA3420D
:100EE00016D007DC83B16FF08060184470B102281F
:100EF00018D111E0B0F5007F10D0114C204448B15A
:100F0000B0F5003F0ED10BE002230DE000230BE013
:100F1000002309E0002307E0012305E0012303E0AB
:100F2000012301E0002300BF00BFD8B210BD0000C4
:100F30000300000400030008000003100001000883
:100F40000001FFF710B500F0FBF800F003F800F027
:100F5000F3F810BD70B50026002018490880184924
:100F6000088018490860184908601849086018493D
:100F7000086018490860002400BFFFF709F9064619
:100F800000BF00250BE000201049086000F074F855
:100F900000F08CF80D4800680444681C85B2002DF0
:100FA000F1D00C4804600020084908600849086036
:100FB00000BF3046FFF7F0F800BF70BDE80000202A
:100FC000EA000020EC000020F0000020F8000020E3
:100FD000FC000020F400002001460846044A126884
:100FE000904203D9024A1268801A00E0002070473C
:100FF000F400002070B5002500BFFFF7C9F80546D2
:1010000000BF0648046800BF2846FFF7C5F800BFC8
:101010002046FFF7E1FF0646304670BDF80000208D
:1010200070B50025FFF7E6FF044600BFFFF7B0F8F4
:10103000054600BF00200449086000BF2846FFF7AE
:10104000ABF800BF204670BDF800002070B5002549
:1010500000BFFFF79DF8054600BF0648046800BFC3
:101060002846FFF799F800BF2046FFF7B5FF064670
:10107000304670BDFC00002010B509480088401CB7
:10108000074908800748008818B900F083F8064926
:10109000086004480088401C0249088010BD000018
:1010A000E8000020EA000020EC00002010B50F4806
:1010B0000088401E0D49088008460088A0B900F04D
:1010C00069F80B490860084600680A490968441A2B
:1010D00009480068A04201D2074804600748006838
:1010E000A04201D20548046010BD0000EA000020C3
:1010F000F0000020EC000020F8000020FC000020A0
:1011000010B5002400BF00BFFFF742F8044600BF3F
:10111000FFF7B2FF00BF1021064800F0FFF900BF43
:10112000FFF7C4FF00BF2046FFF736F800BF00BF3F
:1011300010BD0000E225002010B5FFF7E1FF10BD53
:1011400010B500200249086000F00AF810BD000048
:10115000E40000200149086070470000E40000201E
:1011600010B5FFF7A6F904460848006840F0807003
:10117000064908600020064948600846006840F0BB
:10118000010008602046FFF7E5FF10BDFCED00E020
:10119000001000E00149486870470000001000E0BE
:1011A00021B1026842F00102026004E002684FF6D9
:1011B000FE731A400260704701684FF6FE721140DC
:1011C00001600021016041608160C1604B4988423B
:1011D00008D14A490839496841F00F01474A083A9D
:1011E00051608AE045491431884208D143490839A1
:1011F000496841F0F001414A083A51607DE03F49B9
:101200002831884208D13D490839496841F4706164
:101210003A4A083A516070E038493C31884208D176
:1012200036490839496841F47041344A083A5160F6
:1012300063E032495031884208D130490839496861
:1012400041F470212D4A083A516056E02B4964312F
:10125000884208D129490839496841F47001274A70
:10126000083A516049E025497831884208D123493C
:101270000839496841F07061204A083A51603CE001
:101280001F49884206D1011F096841F00F01021F62
:10129000116032E01A491431884208D11849091FF7
:1012A000096841F0F001164A121F116025E0144947
:1012B0002831884208D11249091F096841F4706138
:1012C0000F4A121F116018E00D493C31884208D1C5
:1012D0000B49091F096841F47041094A121F116046
:1012E0000BE007495031884207D10549091F0968B9
:1012F00041F47021024A121F116070470800024039
:101300000804024010B50022026847F6F0739A43C1
:101310000C6A8B6823430C6923434C6923438C6913
:101320002343CC6923434C6A23438C6A23431A43E7
:101330000260CB6843600B6883604B68C36010BD7C
:1013400070472DE9F04102460025002600200023C9
:101350000024002791F803C00CF00F0591F803C09A
:101360000CF0100CBCF1000F03D091F802C04CEA55
:10137000050591F800C0BCF1000F31D014680020C1
:101380002BE04FF0010C0CFA00F3B1F800C00CEAAE
:1013900003069E4220D183004FF00F0C0CFA03F796
:1013A000BC4305FA03FC4CEA040491F803C0BCF109
:1013B000280F06D14FF0010C0CFA00FCC2F814C043
:1013C0000AE091F803C0BCF1480F05D14FF0010CC1
:1013D0000CFA00FCC2F810C0401C0828D1D31460DD
:1013E000B1F800C0BCF1FF0F34DD546800202EE0DE
:1013F00000F1080C4FF0010808FA0CF3B1F800C036
:101400000CEA03069E4221D183004FF00F0C0CFA28
:1014100003F7BC4305FA03FC4CEA040491F803C04B
:10142000BCF1280F05D100F1080C08FA0CF8C2F83D
:10143000148091F803C0BCF1480F07D100F1080CEB
:101440004FF0010808FA0CF8C2F81080401C082878
:10145000CED35460BDE8F081F0B50A4600230024E5
:101460000021002500F00046B6F1004F02D11D4ECC
:10147000F16901E01B4E7168C0F3034583B200F4CB
:101480004016B6F5401F08D121F07061154E766800
:1014900026F07066134F7E6012E000F48016B6F5F9
:1014A000801F06D1032606FA05F4A14341F07061BE
:1014B00006E0460D360103FA06F6B14341F07061CD
:1014C00022B1460D360103FA06F6314300F000461C
:1014D000B6F1004F02D1034EF16101E0014E71609F
:1014E000F0BD00000000014000BFFEE708B501218B
:1014F000042004F03FFD4FF40060ADF80000102020
:101500008DF8030003208DF8020069460148FFF7BB
:1015100018FF08BD000C014000BFFEE730B50546CE
:101520000C4622460021284600F001F830BD2DE986
:10153000F04103460C4617460FB9BDE8F08103B9E8
:10154000FBE70025002202E02D022543521C042A5D
:10155000FAD3384603F0030C1946BCF1000F08D04B
:10156000624603E001F8014B401E521C08B1042AF8
:10157000F8D30E4601E020C6001F0428FBD23146F6
:1015800002E001F8014B401E0028FAD100BFD4E769
:101590007047000070B5002100230F22C47804B307
:1015A000154C246804F4E064C4F5E064210AC1F138
:1015B0000403CA40447804FA03F1847814402143B8
:1015C00009010E4C0678A155047804F01F0501248A
:1015D000AC4005786D11AD0005F1E025C5F800417E
:1015E00009E0047804F01F050124AC40044D06789E
:1015F000761145F8264070BD0CED00E000E400E0F7
:1016000080E100E002490143024A11607047000096
:101610000000FA050CED00E07047000010B503482B
:10162000006810B101480068804710BD100100201B
:1016300070B5044600F0C2F80020484908704849D7
:101640000870484908704849086048490860484996
:101650000870484908704849087048490860484976
:1016600008604849086048490870484800680A21ED
:10167000B0FBF1F0464908604648006858B146485A
:10168000056845B14348066803E0761E00202860DF
:101690002D1D002EF9D10020404908604049086006
:1016A0004049086040490860404908604049086076
:1016B000404908604049087002F0C8FB02F0C6FCCF
:1016C000204601F01FFD208800B170BD204602F0C9
:1016D00039F9208800B1F8E7204602F03FF9208868
:1016E00000B1F2E7204602F023FA208800B1ECE7CF
:1016F000204602F0DBFB208800B1E6E7204602F03E
:1017000043FE208800B1E0E7204603F0ADF92088D1
:1017100000B1DAE7204602F081F8208800B1D4E772
:10172000204601F08BFE208800B1CEE7204604F071
:1017300003FA208800B1C8E7204603F0D9F82088D2
:1017400000B1C2E7204604F053FA208800B1BCE79C
:1017500001F0FEFBFFF760FF00BFB6E724010020A9
:101760002C01002074010020CC010020D0010020B9
:101770005A0100205B0100205C010020680100206C
:101780006C010020700100207C0100202C760008F4
:1017900078010020FC750008F8750008040100209D
:1017A000080100200C01002010010020140100207D
:1017B000180100201C010020AA0100200A4A11681B
:1017C000002002E0002204C1401C084A1268904236
:1017D000F8D3054A1268054B1B6802EB8302121FFF
:1017E000034B1A6070470000F8750008FC7500088C
:1017F000D401002008480078012800D0704707482D
:101800000078FA2800DBF9E704480078401C034917
:10181000087000BFF2E700002C0100202401002026
:1018200010B500242E480078012800D010BD00BF5C
:10183000FEF7AEFC044600BF2A48007828B900BF76
:101840002046FEF7A9FC00BFF0E726480078401EBE
:101850002449087008460078002805DD00BF2046AE
:10186000FEF79AFC00BFE1E71F480078002805DD7D
:1018700000BF2046FEF790FC00BFD7E702F0D2FA87
:101880001A4908700846007800EB4000184951F8E2
:10189000200018490860084600681749096888420E
:1018A00005D100BF2046FEF777FC00BFBEE7114818
:1018B0000068D0F89000401C0E490968C1F89000FB
:1018C0000E480068401C0D4908604FF080500C49DC
:1018D000086000BF2046FEF75FFC00BF00BFA5E721
:1018E0002C01002024010020740100205B01002055
:1018F000203C0020D0010020CC010020A0010020CD
:1019000004ED00E010B5002420480078002800DD38
:1019100010BD1F480078002800DDF9E700BFFEF782
:1019200037FC044600BF02F07DFA1A4908700846E9
:10193000007800EB4000184951F820001749086072
:101940000846006816490968884205D100BF20464C
:10195000FEF722FC00BFDBE710480068D0F89000DB
:10196000401C0E490968C1F890000E480068401CF0
:101970000C4908604FF080500B49086000BF2046BA
:10198000FEF70AFC00BF00BFC2E7000024010020F0
:10199000740100205B010020203C0020D0010020C9
:1019A000CC010020A001002004ED00E070B5044649
:1019B00000251A480078002803DD46F66250208092
:1019C00070BD17480078012803D045F68960208053
:1019D000F6E714480078FA2803DB45F20920208056
:1019E000EEE700BF00BFFEF7D3FB054600BFFFF7E1
:1019F00043FB00BF0B480078401C0A49087002F006
:101A000009FC00BFFFF752FB00BF2846FEF7C4FBEE
:101A100000BF00BF0020208000BFD1E724010020CC
:101A20002C010020740100202DE9F04105460C46F0
:101A30001646002700BF00BFFEF7AAFB074600BFFF
:101A4000FFF71AFB00BF012D03D000200E490870DC
:101A500002E001200C49087014B10C48046006E053
:101A60000B4800680A21B0FBF1F00849086000BF8C
:101A7000FFF71CFB00BF3846FEF78EFB00BF00BF20
:101A800000203080BDE8F0817C010020780100203A
:101A90002C76000870B504460025234800780028FD
:101AA00003DD46F66550208070BD2048007801288F
:101AB00003D045F689602080F6E71D48007818B904
:101AC00046F664502080EFE700BF00BFFEF760FBE2
:101AD000054600BFFFF7D0FA00BF15480078401E4A
:101AE000134908700846007800280CDD00BFFFF796
:101AF000DDFA00BF2846FEF74FFB00BF00BF46F6E9
:101B000063502080D0E702F093FB00BFFFF7CEFACE
:101B100000BF2846FEF740FB00BF00BFFFF7F2FE04
:101B20000020208000BFBFE7240100202C010020FE
:101B3000740100202DE9F04104460E4617461D466B
:101B40004FF0000830480078002804DD42F6E160DC
:101B50002880BDE8F0811CB945F6C3502880F8E71D
:101B600000BF00BF00BFFEF713FB804600BFFFF7BA
:101B700083FA00BF25480078401C244908700846B5
:101B80000078012801D102F045FB00BFFFF78EFA73
:101B900000BF4046FEF700FB00BF00BF00BF1C486F
:101BA0002060276200206062666004F1080002F095
:101BB00053F8204602F0D0FB16480088401C154917
:101BC000088000BF00BF00BFFEF7E2FA804600BFFA
:101BD000FFF752FA00BF0D480078401E0B4908700D
:101BE0000846007808B902F023FB00BFFFF75EFA51
:101BF00000BF4046FEF7D0FA00BF00BF00BF002084
:101C0000288000BFA5E70000240100207401002007
:101C100053454D41840100202DE9F04788B0064628
:101C2000894690461C46109D4FF0000A7D4800787A
:101C3000002806DD46F2AE102880002008B0BDE87E
:101C4000F08726B945F6C35028800020F6E7B8F1A2
:101C5000000F03D0B8F5004F02D100E000BF04E050
:101C600045F6256028800020E8E700BF6E4930680F
:101C7000884204D045F6C45028800020DEE70CB12D
:101C80000020206000BF00BFFEF782FA824600BF3E
:101C9000FFF7F2F900BF306A98B1306A401E306237
:101CA0000CB1706A2060376A00BFFFF7FFF900BF10
:101CB0005046FEF771FA00BF00BF0020288038466A
:101CC000BCE708F4004070B1376A00BFFFF7EEF9D7
:101CD00000BF5046FEF760FA00BF00BF46F2B010EA
:101CE00028803846AAE75148007800280DDD00BF5B
:101CF000FFF7DCF900BF5046FEF74EFA00BF00BF09
:101D000046F663502880002098E700BF47480078D7
:101D1000401C4649087008460078012801D102F0AD
:101D200079FA00BFFFF7C2F900BF5046FEF734FA58
:101D300000BF00BF00BF4B4606223146684601F097
:101D400003FF00BF00BF00BFFEF722FA824600BFBC
:101D5000FFF792F900BF35480078401E33490870FC
:101D60000846007808B902F063FA00BFFFF79EF951
:101D700000BF5046FEF710FA00BF00BF00BFFFF7DC
:101D8000C1FD00BF00BFFEF703FA824600BFFFF7A8
:101D900073F900BF2648006890F8350030B101287B
:101DA0000CD002281AD0032821D110E01CB1204801
:101DB0000068006C20600020288026E01CB11C48D0
:101DC0000068006C206046F2A91028801DE00CB16C
:101DD0000020206047F2D920288016E01CB114486A
:101DE0000068006C206045F6C25028800DE046F681
:101DF0002E60288000BFFFF759F900BF5046FEF75C
:101E0000CBF900BF00BF002018E700BF376A00BF52
:101E1000FFF74CF900BF5046FEF7BEF900BF00BF08
:101E200038460BE72401002053454D417401002042
:101E3000CC01002010B5044612480078E8B901F042
:101E4000F1FF1149087008460078104908700E48E3
:101E5000007800EB40000E4951F820000D49086061
:101E6000084600680C490860012006490870FEF722
:101E7000E3F943F69920208002E045F68A6020804D
:101E800010BD00002C0100205B0100205A01002041
:101E9000203C0020D0010020CC0100202DE9F041A1
:101EA00007464FF0000800BF00BFFEF771F98046FB
:101EB00000BFFFF7E1F800BF00204749086047492D
:101EC00008804749088047490860474908604749F2
:101ED000086047490860474908604749088100BFD2
:101EE000FFF7E4F800BF4046FEF756F900BF00BF19
:101EF00000BF00BFFEF74CF9804600BFFFF7BCF8FB
:101F000000BF3E48046800BFFFF7D0F800BF40465E
:101F1000FEF742F900BF00BF26E000BF00BFFEF79A
:101F200037F9804600BFFFF7A7F800BF00207834DC
:101F3000E063206420602063A061A082E082606290
:101F4000A062FFF727F92062783C04F164060020C4
:101F5000B081D4F8C04000BFFFF7A8F800BF4046EA
:101F6000FEF71AF900BF00BF002CD6D100BF00BF9A
:101F7000FEF70EF9804600BFFFF77EF800BF20484D
:101F8000056800BFFFF792F800BF4046FEF704F96E
:101F900000BF00BF16E000BF00BFFEF7F9F88046A3
:101FA00000BFFFF769F800BF05F120060020B081EF
:101FB000AD6900BFFFF77AF800BF4046FEF7ECF8C6
:101FC00000BF00BF002DE6D103F07EFC03F00CFF44
:101FD00000203880BDE8F081400100203A01002057
:101FE0008A0100209C010020B0010020BC010020DB
:101FF000280100206C010020143C0020A4010020D6
:1020000060010020F8B5044600266946364800F015
:1020100033FDBDF8000018B1BDF800002080F8BD08
:102020006A460021022000F0A9FDBDF8000018B1A9
:10203000BDF800002080F2E700BF00BFFEF7A8F85F
:10204000064600BFFFF718F800BF002027490860C8
:1020500000BFFFF72BF800BF3046FEF79DF800BF2A
:1020600000BF00252248006822490968884205D936
:102070001F4800681F490968B0FBF1F525B91C48E5
:1020800000680A21B0FBF1F56A460021284600F0FD
:1020900075FD6946144800F0A5FABDF8000018B1B6
:1020A000BDF800002080BAE700BF00BFFEF770F85F
:1020B000064600BFFEF7E0FF00BF00200E490860A3
:1020C0000A4800680D49086001200D49087000BFEA
:1020D000FEF7ECFF00BF3046FEF75EF800BF00BF22
:1020E0000020208000BF9AE7303F00208C010020B4
:1020F0002C760008147600089C0100209001002036
:102100009801002010B50348006810B1014800682C
:10211000804710BD140100202DE9FF4F87B0044611
:102120009046DDE91BA5DDE91496179F002003907A
:1021300095480078002805DD47F24A1028800BB04A
:10214000BDE8F08F1CB947F2AD102880F7E7B8F171
:10215000000F03D147F24F102880F0E71EB946F672
:102160002F602880EBE789480068874203D246F653
:1021700030602880E3E71698B84203D346F6316012
:102180002880DCE7B9F1200F03D346F273202880C2
:10219000D5E7B9F1000F06D17D48844203D046F25D
:1021A00073202880CBE7B9F11F0F06D1794884420C
:1021B00003D046F273202880C1E7204602F064FC79
:1021C000002028800AF0010090B10AF0020078B1E6
:1021D00005960020069008E000210598016005980A
:1021E000001D05900698401C06900698B842F3D34F
:1021F000169806EB80000490CDE9007A32464046FE
:10220000049B0A9900F0D8FB0590C4F828800A982E
:10221000E0620898206284F837900598206004985E
:10222000A06019986065199818B95B480068A065A6
:1022300001E01998A0651A9860606662A763A4F827
:102240003CA04FF0000B08E0002104F17C0040F8B6
:102250002B100BF1010000F0FF0BBBF1000FF3D0CE
:1022600004F16400189901F0D9FB204600F09EF8B3
:1022700000BF00BF00BFFDF78BFF039000BFFEF75C
:10228000FBFE00BF45480078401C444908700846E2
:102290000078012801D101F0BDFF00BFFEF706FF65
:1022A00000BF0398FDF778FF00BF00BF00BF94F8A0
:1022B000370001F0D7FD204601F010FF204602F064
:1022C00099FB37480088401C35490880354800781C
:1022D000012837D000BF00BF00BFFDF759FF0390B2
:1022E00000BFFEF7C9FE00BF2C480078401E2B49F6
:1022F000087008460078D0B901F09AFF2A48008893
:1023000000280BDD00BFFEF7D1FE00BF0398FDF7EC
:1023100043FF00BF00BF01F04FFF11E000BFFEF719
:10232000C5FE00BF0398FDF737FF00BF08E000BF00
:10233000FEF7BCFE00BF0398FDF72EFF00BF00BFF5
:1023400000BFFCE600BF00BF00BFFDF721FF039008
:1023500000BFFEF791FE00BF10480078401E0F49F5
:1023600008700846007808B901F062FF00BFFEF768
:102370009DFE00BF0398FDF70FFF00BF00BF00BF29
:10238000FFF7C0FA00BFDAE6240100202876000833
:102390004C3B0020843A002078010020740100208A
:1023A000A80100202C0100203801002010B50446AF
:1023B0000348006818B1204601490968884710BDE4
:1023C0000401002070B504460D46002678480078C8
:1023D000002803DD47F24E10288070BD7548844206
:1023E00003D147F24C102880F7E77348844203D1A9
:1023F00047F24D102880F0E79CB900BF00BFFDF701
:10240000C7FE064600BFFEF737FE00BF6B480468F4
:1024100000BFFEF74BFE00BF3046FDF7BDFE00BF1C
:1024200000BF00BF00BF00BFFDF7B2FE064600BF01
:10243000FEF722FE00BF62480078401C6049087029
:1024400008460078012801D101F0E4FE00BFFEF744
:102450002DFE00BF3046FDF79FFE00BF00BF00BF4E
:1024600094F8360008282DD2DFE800F004090E1099
:10247000080A0F11204601F071FE5EE05DE000BF2A
:10248000204603F005FA58E000BF00BF00BF204619
:1024900003F0FEF994F83400082810D2DFE800F0C9
:1024A00004070508090A0B0600BF00BF08E000BFCB
:1024B00000BF00BF00BF204601F006FC00E000BFE7
:1024C00000BF3AE000BF00BF00BFFDF761FE064657
:1024D00000BFFEF7D1FD00BF39480078401E3849E3
:1024E000087008460078D0B901F0A2FE354800888F
:1024F00000280BDD00BFFEF7D9FD00BF3046FDF719
:102500004BFE00BF00BF01F057FE11E000BFFEF719
:10251000CDFD00BF3046FDF73FFE00BF08E000BF25
:10252000FEF7C4FD00BF3046FDF736FE00BF00BF1A
:1025300000BF46F62D6028804FE700BF04F164001D
:1025400001F04AFA204600F041F8204602F06AFA0B
:102550001D480088401E1C490880204602F094FA5D
:10256000FF2084F8360000BF00BF00BFFDF710FE5B
:10257000064600BFFEF780FD00BF11480078401EF0
:102580000F4908700846007808B901F051FE00BFF5
:10259000FEF78CFD00BF3046FDF7FEFD00BF00BF1B
:1025A00000BF00202880FFF7ADF900BF15E700004D
:1025B00024010020843A00204C3B0020CC01002064
:1025C0007401002038010020A801002010B5044645
:1025D0000348006818B1204601490968884710BDC2
:1025E000080100207FB504460D46002600BF00BF4D
:1025F000FDF7CEFD064600BFFEF73EFD00BF1CB155
:102600001748006884420CD100BFFEF74FFD00BFA1
:102610003046FDF7C1FD00BF00BF47F257102880CC
:102620007FBD00BFFEF742FD00BF3046FDF7B4FDA1
:1026300000BF00BF0B48007800280BDD0020009091
:102640000190034602462146CDE90205064800F006
:102650002DFFE5E72946204602F0C2FB00BFDFE779
:10266000CC010020240100205452455310B50446EB
:102670000348006818B1204601490968884710BD21
:102680000C0100202DE9F04780460E4614461D46F9
:102690004FF000098C480078002805DD46F2AE10A6
:1026A00028800020BDE8F0871EB1B6F5004F02D1AA
:1026B00000E000BF04E045F6256028800020F1E737
:1026C00000BF0CB10020206000BF00BFFDF760FD1F
:1026D000814600BFFEF7D0FC00BF7C480068406C1C
:1026E000B8B37A480068406C401E7849096848646D
:1026F00076480068476C1CB174480068006C206024
:10270000FEF748FD71490968096C401A6F4909686C
:10271000C1F8A4006D480068D0F8A8006B490968AA
:10272000D1F8A410884207D268480068D0F8A40005
:1027300066490968C1F8A80000BFFEF7B7FC00BFF2
:102740004846FDF729FD00BF00BF0020288038461D
:10275000A8E7FFE706F4004068B100BFFEF7A6FC5B
:1027600000BF4846FDF718FD00BF00BF46F2B0109D
:102770002880002096E75648007800280DDD00BF2D
:10278000FEF794FC00BF4846FDF706FD00BF00BF02
:1027900046F663502880002084E700BF4C4800784C
:1027A000401C4B49087008460078012801D101F00F
:1027B00031FD00BFFEF77AFC00BF4846FDF7ECFC98
:1027C00000BF00BF00BF434607220021084601F0BA
:1027D000BBF900BF00BF00BFFDF7DAFC814600BFB8
:1027E000FEF74AFC00BF3A480078401E384908709E
:1027F0000846007808B901F01BFD00BFFEF756FC43
:1028000000BF4846FDF7C8FC00BF00BF00BFFFF790
:1028100079F800BF00BFFDF7BBFC814600BFFEF7A3
:102820002BFC00BF2948006890F8350020B1012832
:1028300026D0032834D12CE0FCB124480068006C79
:102840002060FEF7A7FC21490968096C401A1F495E
:102850000968C1F8A4001D480068D0F8A8001B4909
:102860000968D1F8A410884207D218480068D0F847
:10287000A40016490968C1F8A8000020288013E0C8
:102880001CB112480068006C206046F2A910288034
:102890000AE00CB10020206047F2D920288003E034
:1028A00046F62E60288000BF00BF08480068476CCD
:1028B00000BFFEF7FBFB00BF4846FDF76DFC00BF05
:1028C00000BF3846EEE6000024010020CC010020C5
:1028D000740100202DE9F04705460E4617461C46B8
:1028E0004FF0000A32480078002804DD47F2591002
:1028F0002080BDE8F0871EB946F2D5202080F8E799
:102900001FB946F2D5202080F3E700BF00BFFDF7D6
:102910003FFC824600BFFEF7AFFB00BF0DB9254864
:102920000568286878B900BFFEF7C0FB00BF5046B5
:10293000FDF732FC00BF00BF00203060386047F276
:1029400052102080D5E795F83C0000F0010078B9DE
:1029500000BFFEF7ABFB00BF5046FDF71DFC00BFFC
:1029600000BF00203060386047F254102080C0E77C
:1029700000BFFEF79BFB00BF5046FDF70DFC00BFFC
:1029800000BF4FF00008D5F8249003E009F10409D6
:1029900008F10108D9F800000028F7D0C6F8008037
:1029A000A86BA0EB080038600020208000BFA0E7E3
:1029B00024010020CC010020F0B50446DDE90556D5
:1029C00002EB85004FF0807C071F3846C7F800C037
:1029D000071F38463C60DFF89CC0071F3846C7F821
:1029E00000C04FF0123C071F3846C7F800C04FF038
:1029F000033C071F3846C7F800C04FF0023C071FD2
:102A00003846C7F800C0071F38463B60071F3846E6
:102A100039604FF0113C071F3846C7F800C04FF02F
:102A2000103C071F3846C7F800C04FF0093C071F8D
:102A30003846C7F800C04FF0083C071F3846C7F8B3
:102A400000C04FF0073C071F3846C7F800C04FF0E2
:102A5000063C071F3846C7F800C04FF0053C071F6B
:102A60003846C7F800C04FF0043C071F3846C7F887
:102A700000C0F0BD5D4F00087FB505460C4612480A
:102A8000854203D147F25B1020807FBD0F4885420D
:102A900003D147F25C102080F7E70D48007800284A
:102AA0000BDD002000900190034602462946CDE947
:102AB0000204084800F0FAFCE7E72146284602F045
:102AC0002DFD00BFE1E70000843A00204C3B0020D0
:102AD000240100205453555370B52448006810B1A8
:102AE000224800688047FEF755FB044620480068EE
:102AF00020490968884215D01D480068D0F8980020
:102B0000201A1B490968C1F8940019480068D0F8D8
:102B10009C0017490968D1F89410084414490968C1
:102B2000C1F89C0013480068C0F89840FEF778FA96
:102B300005460F480068D0F8B400A84203D20C48FC
:102B40000068C0F8B4500A480068D0F8B8000A49D4
:102B50000968884205D20848006805490968C1F833
:102B6000B80000200449086070BD00001801002072
:102B7000CC010020D0010020700100202DE9F0419F
:102B800005460E46144600274D480078002804DD0F
:102B900047F275202080BDE8F0814A48007800287F
:102BA00003DD46F663502080F5E736B1022E05D0EE
:102BB000042E0AD0082E09D101E000BF00BF1DB9C4
:102BC00047F27E202080E6E704E003E045F625603A
:102BD0002080E0E700BF00BF00BF00BFFDF7D8FACC
:102BE000074600BFFEF748FA00BF36480078401C91
:102BF0003449087008460078012801D101F00AFB29
:102C000000BFFEF753FA00BF3846FDF7C5FA00BF14
:102C100000BF00BF01202C49096881F83600234617
:102C2000324629462848006802F054FD2088F0B159
:102C300000BF00BF00BFFDF7ABFA074600BFFEF7BD
:102C40001BFA00BF1F480078401E1E490870084646
:102C5000007808B901F0ECFA00BFFEF727FA00BFD0
:102C60003846FDF799FA00BF00BF00BF93E716484A
:102C7000006801F073FA00BF00BF00BFFDF788FADB
:102C8000074600BFFEF7F8F900BF0E480078401E67
:102C90000C4908700846007808B901F0C9FA00BF6D
:102CA000FEF704FA00BF3846FDF776FA00BF00BF12
:102CB00000BFFEF727FE0020208000BF6BE700006A
:102CC0002401002074010020CC0100202DE9FF5FC9
:102CD00005460E4617469846DDE90EA400200090F2
:102CE00081480078002804DD47F275202080BDE887
:102CF000FF9F7E480078002803DD46F66350208061
:102D0000F5E70AF00E0BBBF1000F09D0BBF1020F83
:102D100007D0BBF1040F10D0BBF1080F0ED101E0BA
:102D200000BF00BFB8F1000F06D12FB926B91DB9F9
:102D300047F27E202080DAE704E003E045F62560D4
:102D40002080D4E700BF2AF01E0008B1012000E077
:102D5000002003900398012803D145F625602080C8
:102D6000C5E7CAF3001002900298C0B9B8F57A7F9F
:102D700003D347F27B202080B9E73B2F03DD47F2E6
:102D80007A202080B3E73B2E03DD47F279202080B4
:102D9000ADE7632D12DD47F278202080A7E742F2ED
:102DA0000F70864203DD47F2792020809FE7B5F55A
:102DB0007A7F03DB47F27820208098E74C48D0F8F0
:102DC00000904FF4FA70B0FBF9F0404400FB09F0BA
:102DD0004FF47A71B0FBF1F14FF461606843C6EBD8
:102DE000061200EB8200384400FB091001900198A4
:102DF000002873D000BF00BF00BFFDF7C9F90090E5
:102E000000BFFEF739F900BF38480078401C374949
:102E1000087008460078012801D101F0FBF900BFD5
:102E2000FEF744F900BF0098FDF7B6F900BF00BFF8
:102E300000BF01202F49096881F8360023465A4611
:102E40002C480199006802F045FC2088F0B100BFD1
:102E500000BF00BFFDF79CF9009000BFFEF70CF922
:102E600000BF22480078401E2049087008460078BC
:102E700008B901F0DDF900BFFEF718F900BF0098AE
:102E8000FDF78AF900BF00BF00BF30E719480068AE
:102E900001F064F900BF00BF00BFFDF779F90090B1
:102EA00000BFFEF7E9F800BF10480078401E0F4948
:102EB00008700846007808B901F0BAF900BFFEF7BB
:102EC000F5F800BF0098FDF767F900BF00BF00BF2D
:102ED000FEF718FD0020208003E0FFE747F27E2088
:102EE000208000BF03E700002401002074010020BF
:102EF0002C760008CC01002010B586B000F01EF83A
:102F0000FEF748F9044605A800210091CDE9011417
:102F100003900748007800EB4000064A02EB80016E
:102F200000231A46044800F0C1FA06B010BD0000A4
:102F30005A010020203C00205449434B10B503485F
:102F4000006810B101480068804710BD1C010020D6
:102F5000254A2649264A274A2749284A2848294AED
:102F6000294A2A4A2A4A2B482B482C482C4A2D48C1
:102F70002D4A2E482E4A2F482F4830483048314A93
:102F8000314A324A3248334A334A34483448354861
:102F90003548364836483748374A384A384A394A31
:102FA00039483A483A483B4A3B4A3C4A3C483D4803
:102FB0003D483E493E483F4A3F4A404A404A414ACE
:102FC000414A424A4248434A434A44484448454A9F
:102FD000454A4648464A474A47484848484800BF45
:102FE00000BF00BF7047000070760008D877000867
:102FF000717600087276000874760008787600080A
:103000007C76000879760008A4760008A57600088A
:10301000A6760008A8760008AA760008AC76000814
:10302000AE760008B0760008D0760008D2760008A8
:10303000D4760008D6760008D8760008DA7600083C
:10304000DC76000808770008097700080A7700088E
:103050000C7700080E7700080F770008107700083B
:103060001277000814770008167700081877000810
:103070001A7700081C7700084C7700084D77000885
:103080004E7700084F770008507700085277000805
:10309000547700087C7700087D7700087E77000869
:1030A0007F7700088077000882770008847700081F
:1030B00088770008897700088A7700088B770008EE
:1030C0008C7700088D7700088E7700088F770008CE
:1030D00090770008927700089377000894770008AB
:1030E0009677000898770008997700089C77000881
:1030F000D0770008D1770008D2770008D47700088D
:10310000D67700080021034A1160034A118001802C
:103110007047000044010020480100202DE9F04FD5
:1031200085B00446894692469B46DDF838800020EB
:10313000009000BF00BFFDF72BF8009000BFFDF727
:103140009BFF00BFBAF1000F0AD0BAF1010F0DD0FA
:10315000BAF5004F05D06FF40040504460B906E066
:1031600000BF206A40EA0900206216E000BF206A22
:1031700020EA0900206210E000BFFDF797FF00BFC2
:103180000098FDF709F800BF00BF45F62560A8F8D4
:103190000000002005B0BDE8F08F00BFC4F824B0E7
:1031A00004F1080001900198008968B900BFFDF79B
:1031B0007DFF00BF0098FCF7EFFF00BF00BF0020BD
:1031C000A8F80000206AE5E700BF71480078401CBD
:1031D0006F49087008460078012801D101F01AF8FB
:1031E00000BFFDF763FF00BF0098FCF7D5FF00BFED
:1031F00000BF00BF01980768BD6889E07868029049
:1032000095F8880000F00F0003900398012821D062
:1032100002282ED0042802D0082836D10EE0206AD9
:10322000D5F8801000EA0106D5F88000B04204D13C
:103230005A463146284600F0AFF863E0206AD5F8D8
:10324000801000EA010626B15A463146284600F0B1
:10325000A3F857E0D5F88000216A20EA0106D5F8E6
:103260008000B04204D15A463146284600F094F816
:1032700048E0D5F88000216A20EA010626B15A46C6
:103280003146284600F088F83CE000BF00BF00BF90
:10329000FCF77EFF009000BFFDF7EEFE00BF3C484C
:1032A0000078401E3A49087008460078D0B900F00E
:1032B000BFFF3848008800280BDD00BFFDF7F6FE91
:1032C00000BF0098FCF768FF00BF00BF00F074FF6C
:1032D00011E000BFFDF7EAFE00BF0098FCF75CFFBD
:1032E00000BF08E000BFFDF7E1FE00BF0098FCF75B
:1032F00053FF00BF00BF00BF43F6FF20A8F8000047
:10330000002047E700BF029F0FB1BD6800E0002525
:10331000002D7FF473AF00BF00BF00BFFCF738FF84
:10332000009000BFFDF7A8FE00BF19480078401EBE
:10333000174908700846007808B900F079FF00BF07
:10334000FDF7B4FE00BF0098FCF726FF00BF00BFEA
:1033500000BF0AF4004008B9FEF7D4FA00BF00BF6E
:10336000FCF716FF009000BFFDF786FE00BF206A45
:10337000049000BFFDF79AFE00BF0098FCF70CFF19
:1033800000BF00BF0020A8F80000049802E700007A
:10339000740100203801002070B504460E46154621
:1033A00034342665002060702070E560A078343CDD
:1033B000082816D2DFE800F00405080907061011F6
:1033C00000BF00BF00BF0DE000BF204601F0FAFCC7
:1033D000002084F8360005E000BF042084F83600A1
:1033E00000E000BF00BF204600F06EFC70BD000092
:1033F000002400BF1DE000BF00BFFCF7C9FE04466B
:1034000000BFFDF739FE00BF0A480068401C0949AB
:10341000086009480068401C0749086000BFFDF7C4
:1034200045FE00BF2046FCF7B7FE00BF00BFFEF719
:10343000F5F8E0E7200100208C01002010B58AB0EB
:10344000044600200E4908600B2000210591CDE9BB
:103450000704069108460B4909680B4A12680B4B92
:103460001B68CDE90132CDE903101F200023084A73
:1034700008A100900C48FEF74FFE0AB010BD0000F6
:1034800020010020D4750008D0750008CC75000814
:10349000F133000875432F4F532D494949204964A2
:1034A0006C65205461736B00843A00202DE9F84F5D
:1034B00004460D4616461F46DDE90BABDDF82890A5
:1034C000DDF834800020009000BF00BFFCF760FEF4
:1034D000009000BFFDF7D0FD00BF2C4800882C49AC
:1034E000098888423EDA29480088401C274908801C
:1034F000284800880988884203DA2448008825493A
:1035000008802548006804602348006885602248D8
:103510000068C6602048006807821F480068C0F83D
:1035200014901D480068A0F818A01B480068C0F857
:103530001CB0194800684068174908600120174905
:103540000881174808604860002000F08BFC15488F
:10355000007818B113480078134908700020A8F8C3
:10356000000008E011480088401C1049088044F21F
:103570005360A8F8000000BFFDF798FD00BF009859
:10358000FCF70AFE00BF00BFBDE8F88F380100203D
:10359000E07500083A01002030010020203C0020A6
:1035A0004C3B00205A0100205C0100203C0100201F
:1035B0003EB5594800680068584A811A904279D04F
:1035C0000FDC5749084400283ED056490844A8B1AA
:1035D00055490844002860D05449084400286AD15D
:1035E0003FE053480844002850D05249084400287E
:1035F00062D0514908440028F1D110E002A8464D9C
:1036000000902D68EB69444D2D682A8B424D2D6842
:103610006969414D2D68A868FFF780FD7AE002A92D
:103620003D480068C0693C4DCDE900012D682B8BF9
:10363000394D2D682A8A384D2D68E968364D2D6838
:10364000A86800F03FFC65E0334B1B68DA69324B39
:103650001B68198B304B1B68986802AB00F0A0FE0A
:1036600058E002A92C480068C0692B4DCDE9000143
:103670002D682B8B284D2D682A8A274D2D68E968E7
:10368000254D2D68A86801F067FA43E022490968D2
:10369000886802A901F0A4FB3CE01F4B1B68DA69B3
:1036A0001D4B1B68198B1C4B1B68986802AB01F003
:1036B00061FC2FE007E02CE017490968886802A93F
:1036C00001F02CFF26E01D49097801EB41011C4A5D
:1036D00002EB810000F0CAFD0F48006802AB002138
:1036E000C269184801F046FC17480068401E164998
:1036F00008600846006858B9144800680860FDF77B
:1037000049FD044602AB22460021114801F032FC7B
:1037100000E000BF00BF3EBD340100205449434BD0
:10372000ADBAB2BE0DF90BFAF2F8F7FF0006F6FFDC
:1037300000F7FDF700FFEFFF03FE0FFE5C01002026
:10374000203C0020683E0020C8010020C401002069
:10375000303F0020002700BF56E0002652E000BFA7
:1037600000BFFCF715FD074600BFFDF785FC00BF55
:103770002648008898B900202549088108604860DB
:1037800000F082FB00BFFDF791FC00BF3846FCF75C
:1037900003FD00BF00BFFEF7B5F8012632E000BF11
:1037A000FDF784FC00BF3846FCF7F6FC00BF00BF05
:1037B000FDF7F0FC0546FFF7FBFEFDF7EBFC441BB5
:1037C00014480068A04201D21248046000BF00BF44
:1037D000FCF7DEFC074600BFFDF74EFC00BF0E48BD
:1037E000006840680C49086008480088401E074986
:1037F000088000BFFDF75AFC00BF3846FCF7CCFC40
:1038000000BF00BF002EAAD0A7E7000038010020AB
:10381000203C00204001002034010020F0B589B098
:1038200005460020314908803148006820B944F23B
:103830005260288009B0F0BD2E480088022803DAC3
:1038400044F254602880F5E700202B49086028489E
:1038500004682646203600270CE028482060002017
:10386000A060E060208260612083666020342036A2
:10387000781C87B21F4800888742EEDB203C1C483A
:10388000066866601E4806601E48066000201E49E5
:1038900008801E4908801E48006818B944F2556027
:1038A0002880C7E71B4800681B490968884203D283
:1038B00044F256602880BDE7032000210591CDE940
:1038C0000705069113480068144A1268104B1B68DC
:1038D000CDE90301CDE9013200910B46104A11A157
:1038E0001748FEF719FC00BFA4E700003C010020C8
:1038F000DC750008E0750008400100204E4F4E4581
:103900003001002034010020380100203A0100205D
:10391000E8750008F075000828760008EC750008C6
:103920005537000875432F4F532D494949204953B6
:1039300052205175657565205461736B000000005D
:103940004C3B00200021034A1160034A1180018092
:10395000704700004C0100205001002070B5014666
:103960001A4D2D681DB945F21E750D8070BD184D9C
:103970002D881DB945F21D750D80F7E7134D286898
:103980002A681032124D2D886D1EACB2002308E05B
:103990000260002545600581C560103010325D1C55
:1039A000ABB2A342F4DB0025056045600581C5602C
:1039B000064D2D68074E3560054D2D88B5800025D4
:1039C000F58035810D8000BFD0E700000C7600083F
:1039D00004760008143C002010B5014648894B8944
:1039E000002B17DD0A680C4B1B6813600A4C4B68F0
:1039F00023602346DB884C891B1B074CE38023464E
:103A00009B884C892344044CA38000234B818B81E9
:103A10000B604B6010BD0000143C002001810022AF
:103A20004281828102604260704700002DE9F041CE
:103A30000D46DDE90674B0F80AC0B0F80880C44548
:103A400005DB46F2935CA4F800C0BDE8F081DFF826
:103A5000DCC0BCF804C0BCF1000F04D145F21D7CF1
:103A6000A4F800C0F1E7DFF8C4C0DCF80010DFF80C
:103A7000BC80D1F800C0C8F800C0C446BCF804C07F
:103A8000ACF1010CA8F804C0C446BCF806C00CF1A7
:103A9000010CA8F806C0C446BCF808C0B8F80680F7
:103AA000C44507DADFF884C0BCF806C0DFF87C80C4
:103AB000A8F808C0B0F80AC0BCF1000F0AD1016034
:103AC00041604FF0010CA0F80AC04FF0000CC1F8A3
:103AD00000C017E003F0100CBCF1000F07D106681E
:103AE000316001604FF0000CC1F800C004E0D0F874
:103AF00004C0C1F800C04160B0F80AC00CF1010C6C
:103B0000A0F80AC0B0F80CC0B0F80A80C44503DAC7
:103B1000B0F80AC0A0F80CC04D600A81CF604FF029
:103B2000000CA4F800C000BF8FE70000143C002088
:103B30000021034A1160034A118001807047000090
:103B400054010020580100202DE9F04105460C46A3
:103B500016461F461548006880F834600020134957
:103B6000096881F8350039461048006800F026FFE2
:103B70006CB104F10808EC60012229460B4800688A
:103B800000F016F82946404600F06BF806E00020E9
:103B900006490968C8870549096808630348016838
:103BA000204600F019F8BDE8F0810000CC010020AB
:103BB00010B5C287016300230AE000244C600C604A
:103BC0000C614C610C83CC61886020315C1CA3B219
:103BD0009342F2DB10BD000030B548B14568C1F832
:103BE000C45000F10804226893681D6AC56113E09F
:103BF00091F83450022D02D0072D08D103E007A51B
:103C0000C1F8C45007E007A5C1F8C45003E008A5F7
:103C1000C1F8C45000BF00BF30BD00005461736BD9
:103C2000205100005461736B2053656D000000004B
:103C30002000000030B507A5C1F8C45000F1080409
:103C400022681AB193681D6AC56101E001A5C561CA
:103C500030BD0000200000000021016041600181B2
:103C60007047F0B58E6896F8375007893FB901273D
:103C7000078100274F600F600160416023E00789E2
:103C80007F1C0781026806E0946894F83770AF42A1
:103C900000DD02E05268002AF6D100BF32B90027E9
:103CA0004F6043680B60596041600CE017682FB9A2
:103CB000116000270F604A60016004E013680B6028
:103CC0004A6059601160F0BD2DE9F0410446256B52
:103CD000E68F0AE0D5F80C8008F108072946384637
:103CE00000F00AF82035701E86B2002EF2DC0020AB
:103CF000E0872063BDE8F08110B50489012C03D171
:103D000000240460446011E00C6824B94A6800246F
:103D1000146002600AE04C6824B90B6800245C60FF
:103D2000436003E00B684A685A6013600489641EAC
:103D3000048100244C600C6010BD2DE9F843064658
:103D40000C4617469846089D94F83600082850D22D
:103D5000DFE800F00405080906072B2C00BF00BFB0
:103D600000BF47E000BF94F83400032807D1434662
:103D70003A4621463046009500F03FF803E0E765FB
:103D8000A4F86080256436B12046FFF79DFF2146E8
:103D90003046FFF74FFF204601F014F8002034347E
:103DA000A070607004F8340924E000BF94F8340077
:103DB000032807D143463A4621463046009500F095
:103DC0001CF803E0E765A4F860802564204601F054
:103DD0005FFD36B12046FFF777FF21463046FFF7FB
:103DE00029FF04203434A0700020607004F83409E6
:103DF00000E000BF00BFBDE8F883F0B50446059EB3
:103E0000086BCD8F0AE0C768A74204D10461426104
:103E10000383C66104E020306F1EBDB2002DF2DCCA
:103E200000BFF0BD70B50025074C03E005F1200090
:103E3000C5B2241D20680028F8D02068FCF7B3F92B
:103E40002844C5B2284670BD00010020002004E0CF
:103E50000021034A42F82010401C0028F8D0704787
:103E60000001002030B5420900F01F030121C3F119
:103E70001F04A140034C54F822400C43014D45F867
:103E8000224030BD0001002030B5420900F01F0380
:103E90000121C3F11F04A140034C54F822408C437C
:103EA000014D45F8224030BD000100200021034AA9
:103EB0001160034A118001807047000060010020FA
:103EC000640100202DE9F04F85B007468A469346ED
:103ED0001C460020029000BF00BF00BFFCF758F94D
:103EE000029000BFFDF7C8F800BF56480078401C9C
:103EF0005449087008460078012801D100F08AF979
:103F000000BFFDF7D3F800BF0298FCF745F900BFEA
:103F100000BF00BF07F10806308900284CD104F02B
:103F2000100010B94FF0000801E04FF01008DDE973
:103F30000E0143465A46CDE90001514607F12000E3
:103F4000FFF774FD00BF00BF00BFFCF721F902902E
:103F500000BFFDF791F800BF3A480078401E39498C
:103F6000087008460078D0B900F062F93648008839
:103F700000280BDD00BFFDF799F800BF0298FCF7A1
:103F80000BF900BF00BF00F017F911E000BFFDF70B
:103F90008DF800BF0298FCF7FFF800BF08E000BFF3
:103FA000FDF784F800BF0298FCF7F6F800BF00BFE9
:103FB00000BF05B0BDE8F08F04F4007008B135898A
:103FC00000E00125D6F8009011E0D9F80800039030
:103FD000D9F8040004900E985B465246009038468B
:103FE0000399FFF7AAFEDDF81090681E85B2002D38
:103FF000EBD100BF00BF00BFFCF7CAF8029000BFC2
:10400000FDF73AF800BF0F480078401E0D490870D0
:104010000846007808B900F00BF900BFFDF746F834
:1040200000BF0298FCF7B8F800BF00BF00BF04F45F
:10403000004008B9FDF766FC00210F98018000BF21
:10404000B7E70000740100203801002000210AE0D9
:1040500001EB4102054B03EB82000022028102606A
:1040600042604A1CD1B22029F2D37047203C002084
:1040700010B5044694F83700FFF7F4FE94F83700C3
:1040800005490978884203D1204600F027F802E06C
:10409000204600F003F810BD5A01002010B590F83A
:1040A000373003EB43030C4C04EB83010B893BB922
:1040B00001230B810023C36003610860486009E0AD
:1040C0000B895B1C0B810B68C360002303610A68CA
:1040D0001061086010BD0000203C002010B590F871
:1040E000373003EB43030B4C04EB83010B893BB9E3
:1040F00001230B810023C36003610860486008E06E
:104100000B895B1C0B810023C3604A680261D0608D
:10411000486010BD203C002010B501460C8924B138
:10412000012C03D0022C0CD101E000BF14E0086880
:104130004A6802610024C4601461D0600A6048606B
:104140000AE008684A68C36800241C61C460026110
:10415000D0600B60486000BF00BF10BD2DE9F0418A
:10416000054695F8370000EB4000124901EB80044A
:104170002F69EE6887B946B9002020812060606011
:1041800095F83700FFF780FE0EE02089401E208161
:1041900000203061266007E02089401E2081FE60FB
:1041A0000EB9676000E0376100202861E860BDE873
:1041B000F0810000203C002010B5002400BFFBF778
:1041C000E7FF044600BF00200D4908700D480E4966
:1041D000086008460068D0F89000401C0968C1F8E3
:1041E00090000A480068401C084908604FF0805061
:1041F0000749086000BF2046FBF7CEFF00BF10BD97
:104200005B0100204C3B0020D0010020A0010020D9
:1042100004ED00E010B504480078012803D1FCF754
:10422000B9FF0249086010BD740100206801002038
:1042300010B50A48007880B9FCF7ACFF0849096856
:10424000441A08480068A04201D2064804600648A3
:104250000068A04201D20448046010BD740100202F
:10426000680100206C0100207001002070B5054637
:10427000002635480078012800D070BD00BF00BF7F
:10428000FBF786FF064600BFFCF7F6FE00BF2C6872
:104290004CB900BFFCF70AFF00BF3046FBF77CFFBC
:1042A00000BF00BFE9E72948844209D100BFFCF7FD
:1042B000FDFE00BF3046FBF76FFF00BF00BFDCE72D
:1042C000A06D10B1A06D401EA065A06D48B100BFEB
:1042D000FCF7ECFE00BF3046FBF75EFF00BF00BFFF
:1042E000CBE72889022809DA00BFFCF7DFFE00BF10
:1042F0003046FBF751FF00BF00BFBEE7144800780F
:10430000002809DD00BFFCF7D1FE00BF3046FBF7F7
:1043100043FF00BF00BFB0E72846FFF7FDFE2C6853
:10432000606D18B90B480068A06501E0606DA0657C
:1043300000BFFCF7BBFE00BF3046FBF72DFF00BF00
:1043400000BF00BF99E700007C010020843A0020F4
:10435000740100207801002009A1C16100214161A0
:104360000849096811B90021816105E0054909681A
:10437000816104490968486102490860704700008A
:1043800020000000800100200021034A1160034A40
:10439000118001807047000080010020840100200E
:1043A0002DE9FF5F0446884691461D460020019096
:1043B00000BF00BFFBF7ECFE019000BFFCF75CFE06
:1043C00000BF04F108073889002857D104200128CC
:1043D00004D0022816D004283AD127E0206AFF280A
:1043E0000FD100BFFCF762FE00BF0198FBF7D4FEBF
:1043F00000BF00BF46F6C5502880002004B0BDE8CD
:10440000F09F26E04FF6FF71206A88420DD100BF71
:10441000FCF74CFE00BF0198FBF7BEFE00BF00BFDB
:1044200046F6C55028800020E8E712E0206A401CCC
:1044300068B900BFFCF73AFE00BF0198FBF7ACFE7D
:1044400000BF00BF46F6C55028800020D6E700E038
:1044500000BF00BF206A401C2062D4F820A0C4F82E
:10446000249000BFFCF722FE00BF0198FBF794FEEA
:1044700000BF00BF002028805046BFE700BF2D4886
:104480000078401C2B49087008460078012801D1AB
:10449000FFF7C0FE00BFFCF709FE00BF0198FBF765
:1044A0007BFE00BF00BF00BF08F4007008B13E896A
:1044B00000E00126D7F800B011E0DBF80800029018
:1044C000DBF80400039000231A46CDF80090204644
:1044D0000299FFF732FCDDF80CB0701E86B2002E98
:1044E000EBD1D4F820A000BF00BF00BFFBF750FE07
:1044F000019000BFFCF7C0FD00BF0E480078401ED1
:104500000C4908700846007808B9FFF791FE00BF13
:10451000FCF7CCFD00BF0198FBF73EFE00BF00BFDB
:1045200000BF08F4004008B9FDF7ECF9002028802E
:10453000504663E77401002086B00020009000BF61
:1045400006E0D9490968480001AA0021FEF716FBD8
:10455000D64800780128F4D101A8FDF79FFC002778
:10456000D3480068D0490968884205D9D048006816
:10457000CD490968B0FBF1F727B9CD4800680A2199
:10458000B0FBF1F78EE1FCF705FE8246FCF75EFD1D
:10459000C849086000BF00BFFBF7FAFD009000BFEC
:1045A000FCF76AFD00BFC4480068C44908600020E9
:1045B000C149086000BFFCF779FD00BF0098FBF718
:1045C000EBFD00BF00BFBE480068BC4909688842D7
:1045D00048D9BB480068BB49884205D242F21070F6
:1045E00003900120029023E0B5480068B649884254
:1045F00005D24FF47A7003900A20029018E0B04878
:104600000068B249884203D26420039002900FE010
:10461000AB480068AE49884205D20A2003904FF4A7
:104620007A70029004E00120039042F21070029030
:10463000A34801680298B1FBF0F9A0490398096802
:104640004843B0FBF9F042F21071081AA149088002
:10465000A14800880988884208DA9E4800889E4957
:10466000088003E042F210709A490880FDF74AFD85
:10467000002500BF00BFFBF78BFD009000BFFCF7DB
:10468000FBFC00BF9548046800BFFCF70FFD00BFAE
:104690000098FBF781FD00BF00BF72E000BF00BFC4
:1046A00000BFFBF775FD009000BFFCF7E5FC00BF05
:1046B0008B480078401C8A49087008460078012819
:1046C00001D1FFF7A7FD00BFFCF7F0FC00BF009889
:1046D000FBF762FD00BF00BF00BF54F89C0F606095
:1046E000002044F89C0900BF00BF00BFFBF750FD4D
:1046F000009000BFFCF7C0FC00BF79480078401E66
:104700007749087008460078D0B9FFF791FD7548E1
:10471000008800280BDD00BFFCF7C8FC00BF009834
:10472000FBF73AFD00BF00BFFFF746FD11E000BFF9
:10473000FCF7BCFC00BF0098FBF72EFD00BF08E0B3
:1047400000BFFCF7B3FC00BF0098FBF725FD00BFDE
:1047500000BF00BFD4F8A000054400BF00BFFBF7B6
:1047600017FD009000BFFCF787FC00BFD4F8C040E5
:1047700000BFFCF79BFC00BF0098FBF70DFD00BFDE
:1047800000BF002C8AD145B34E48854205D242F283
:10479000107005904FF0010B1BE04B48854205D28D
:1047A0004FF47A7005904FF00A0B12E047488542AB
:1047B00003D26420059083460BE04548854204D22D
:1047C0000A2005904FF47A7B03E00120059042F225
:1047D000107BB5FBFBF0049003E000200590012066
:1047E000049000BF00BFFBF7D3FC009000BFFCF7B4
:1047F00043FC00BF3948046800BFFCF757FC00BF0A
:104800000098FBF7C9FC00BF00BF2FE0D4F8A00060
:10481000059948430499B0FBF1F086B242F210705A
:10482000864200D90646A4F88C60B4F88E00B042E7
:1048300001DAA4F88E6001AB04F1AC02111D204630
:10484000FEF748F800BF00BFFBF7A2FC009000BFD6
:10485000FCF712FC00BFD4F8C04000BFFCF726FCF8
:1048600000BF0098FBF798FC00BF00BF002CCDD123
:104870001D480078012805D100201B49087001A8B7
:10488000FDF70CFBFCF786FCA0EB0A081748006854
:10489000404502D21548C0F8008001AA00213846E0
:1048A000FEF76CF96FE6000014760008980100200E
:1048B0002C760008280100208C01002094010020A3
:1048C00090010020801A060000093D00005A620293
:1048D0000084D717880100208A010020A40100204D
:1048E0007401002038010020860100209C01002076
:1048F00010B58AB0044600201F4908601F490860AF
:104900001F4908601F4908701F4908701F48006848
:1049100020B946F62B6020800AB010BD1C48006804
:104920001C490968884203D246F62C602080F3E7D0
:10493000194800781F2803D346F62A602080EBE749
:10494000032000210591CDE907040691084610498E
:104950000968124A12680D4B1B68CDE90132CDE996
:1049600003100D48007800230D4A0EA10090124854
:10497000FDF7D2FB00BFCFE78C010020940100209F
:104980009001002098010020860100201876000880
:104990002076000828760008107600081C760008AB
:1049A0003945000875432F4F532D49494920537409
:1049B0006174205461736B00A03D002038B504463B
:1049C0000D4685B16B4602222946204600F082FE44
:1049D000BDF8000018B9032084F8360006E0022074
:1049E00084F8360002E0022084F836002046FFF703
:1049F000B5FB38BD0021C0F8BC100949096819B9D8
:104A00000021C0F8C01007E005490968C0F8C010CF
:104A100003490968C1F8BC000149086070470000FB
:104A2000A4010020D0F8BC20D0F8C0104AB90D4B2A
:104A3000196011B10023C1F8BC300023C0F8C030A8
:104A40000FE029B90023C2F8C030C0F8BC3008E03C
:104A5000C2F8C010C1F8BC200023C0F8C030C0F8B4
:104A6000BC307047A40100200021044A1160044AB0
:104A70001180044A1160018070470000A4010020E9
:104A8000A8010020A001002070B50446002020608D
:104A9000A0606060E06020616061A061E0612BA0C7
:104AA000206200206062A062E0622063E0872064F0
:104AB000E065A4F86000002104F16400FEF7AEFF99
:104AC000002044F8740F6060E060A0822061743CB4
:104AD000002506E0002104F17C0040F82510681C48
:104AE000C5B2002DF6D00020343420612067606705
:104AF000606084F85600E067A06720814FF00040B6
:104B000060610020A061E06120626062A4F858004A
:104B1000A4F85A00E0652066FCF73CFB0646666692
:104B20000020A066C4F88000C4F884002070607083
:104B3000A0702020E0700020C4F88800C4F88C0029
:104B400004A0C4F89000343C70BD00003F54617371
:104B50006B000000200000002DE9FC4704460F46D2
:104B600090469946DDE90A654FF0000A00BF00BF94
:104B700000BFFBF70DFB824600BFFCF77DFA00BFCC
:104B80008D480078401C8C49087008460078012840
:104B900001D1FFF73FFB00BFFCF788FA00BF50468A
:104BA000FBF7FAFA00BF00BF00BF0CB983480468E6
:104BB0000020288094F8360008287CD2DFE800F036
:104BC0000405484906074A4B00BF00BF00BF4B46DB
:104BD0004246394604F16400CDE90065FEF726FF40
:104BE00000BF00BF00BFFBF7D3FA824600BFFCF74F
:104BF00043FA00BF70480078401E6F4908700846AD
:104C00000078D0B9FFF714FB6D48008800280BDD51
:104C100000BFFCF74BFA00BF5046FBF7BDFA00BFE0
:104C200000BFFFF7C9FA11E000BFFCF73FFA00BF71
:104C30005046FBF7B1FA00BF08E000BFFCF736FAB8
:104C400000BF5046FBF7A8FA00BF00BF00BFAFE0AF
:104C500000BF00BF00BF94F8340002282CD14346A7
:104C60003A46214600200096FFF767F800BF00BFD4
:104C700000BFFBF78DFA824600BFFCF7FDF900BFCD
:104C80004D480078401E4C4908700846007808B925
:104C9000FFF7CEFA00BFFCF709FA00BF5046FBF75A
:104CA0007BFA00BF00BF00BF09F40040002843D1D9
:104CB000FCF728FE40E040E04B464246394604F10E
:104CC0006400CDE90065FEF7B1FE00BF00BF00BF84
:104CD000FBF75EFA824600BFFCF7CEF900BF36480C
:104CE0000078401E3449087008460078D0B9FFF7B4
:104CF0009FFA3348008800280BDD00BFFCF7D6F987
:104D000000BF5046FBF748FA00BF00BFFFF754FA58
:104D100011E000BFFCF7CAF900BF5046FBF73CFAB0
:104D200000BF08E000BFFCF7C1F900BF5046FBF729
:104D300033FA00BF00BF00BF3AE000BF00BF00BFB2
:104D4000FBF726FA824600BFFCF796F900BF1A4827
:104D50000078401E1849087008460078D0B9FFF75F
:104D600067FA1748008800280BDD00BFFCF79EF9A2
:104D700000BF5046FBF710FA00BF00BFFFF71CFA58
:104D800011E000BFFCF792F900BF5046FBF704FAB0
:104D900000BF08E000BFFCF789F900BF5046FBF7F1
:104DA000FBF900BF00BF00BF46F62D60288000BFA2
:104DB00000BFBDE8FC87000074010020CC0100208A
:104DC0003801002010B50446204600F061FD94F83B
:104DD000360000F0040010B92046FFF749F910BD75
:104DE00070B504460D46002600BF00BFFBF7D0F9A2
:104DF000064600BFFCF740F900BF0020288094F869
:104E0000360008287ED2DFE800F0040506071456B5
:104E10006A8000BF00BF00BF00BFFCF747F900BFBA
:104E20003046FBF7B9F900BF00BF47F253102880A6
:104E30008CE000BF48480078401C4749087008468D
:104E40000078012801D1FFF7E5F900BFFCF72EF942
:104E500000BF3046FBF7A0F900BF00BF00BF14F849
:104E60008A0F401E207014F88A0928B9002084F89F
:104E700036002046FFF7A6FF00BF00BF00BFFBF7CC
:104E800087F9064600BFFCF7F7F800BF3248007804
:104E9000401E314908700846007808B9FFF7C8F984
:104EA00000BFFCF703F900BF3046FBF775F900BF00
:104EB00000BF00BF4AE014F88A0F401E207014F8AB
:104EC0008A0910B9012084F8360000BFFCF7EEF81B
:104ED00000BF3046FBF760F900BF00BF36E014F8B2
:104EE0008A0F401E207014F88A0910B9022084F835
:104EF000360000BFFCF7DAF800BF3046FBF74CF98C
:104F000000BF00E015E000BF20E014F88A0F401E4B
:104F1000207014F88A0910B9032084F8360000BF05
:104F2000FCF7C4F800BF3046FBF736F900BF00BFFE
:104F30000CE000BFFCF7BAF800BF3046FBF72CF9D5
:104F400000BF00BF46F62D60288070BD00BFFCF793
:104F5000D9FC00BFF9E700007401002008B504483F
:104F60000068FDF783FB69460020FDF72BFA08BDBA
:104F7000CC0100202DE9F8430446884617461D461B
:104F80004FF0000900BF00BF00BFFBF701F98146E9
:104F900000BFFCF771F800BFFB480078401CFA49DD
:104FA000087008460078012801D1FFF733F900BFE7
:104FB000FCF77CF800BF4846FBF7EEF800BF00BFE7
:104FC00000BF0CB9F148046827640020288094F8D9
:104FD000360008287AD2DFE800F00405FEFD060757
:104FE000FCFB00BF00BF00BF0420012804D0022842
:104FF00043D004286BD184E0606CFF283CD100BF13
:1050000000BF00BFFBF7C4F8814600BFFCF734F8CF
:1050100000BFDD480078401EDB4908700846007874
:10502000D0B9FFF705F9DA48008800280BDD00BF8A
:10503000FCF73CF800BF4846FBF7AEF800BF00BFE6
:10504000FFF7BAF811E000BFFCF730F800BF4846A0
:10505000FBF7A2F800BF08E000BFFCF727F800BF8D
:105060004846FBF799F800BF00BF00BF46F6C550A1
:1050700028800020BDE8F88385E04FF6FF71606C62
:1050800088423DD100BF00BF00BFFBF781F88146D9
:1050900000BFFBF7F1FF00BFBB480078401EBA49D4
:1050A000087008460078E0B9FFF7C2F8B8480088F1
:1050B00000280DDD00BFFBF7F9FF00BF4846FBF7F6
:1050C0006BF800BF00BFFFF777F813E0E2E159E0AB
:1050D00000BFFBF7EBFF00BF4846FBF75DF800BFE2
:1050E00008E000BFFBF7E2FF00BF4846FBF754F8BB
:1050F00000BF00BF00BF46F6C55028800020B9E7BA
:1051000041E0606C401CD8BB00BF00BF00BFFBF794
:105110003FF8814600BFFBF7AFFF00BF9A48007819
:10512000401E9949087008460078D0B9FFF780F80A
:105130009748008800280BDD00BFFBF7B7FF00BFD2
:105140004846FBF729F800BF00BFFFF735F811E02C
:1051500000BFFBF7ABFF00BF4846FBF71DF800BFE1
:1051600008E000BFFBF7A2FF00BF4846FBF714F8BA
:1051700000BF00BF00BF46F6C5502880002079E779
:10518000FFE700E000BF00BF606C401C6064666C1D
:1051900000BF00BF00BFFAF7FBFF814600BFFBF76F
:1051A0006BFF00BF78480078401E774908700846BA
:1051B0000078F8B9FFF73CF875480088002810DD42
:1051C00000BFFBF773FF00BF4846FAF7E5FF03E0B7
:1051D0001EE01CE01AE018E000BF00BFFEF7ECFF85
:1051E00011E000BFFBF762FF00BF4846FAF7D4FFAB
:1051F00000BF08E000BFFBF759FF00BF4846FAF7C1
:10520000CBFF00BF00BF00BF80E100BF00BF00BFF9
:1052100094F8340007282CD100231A46214618465A
:105220000097FEF78AFD666C00BF00BF00BFFAF76B
:10523000AFFF814600BFFBF71FFF00BF5248007859
:10524000401E514908700846007808B9FEF7F0FF83
:1052500000BFFBF72BFF00BF4846FAF79DFF00BFDA
:1052600000BF00BF08F40040002801D1FCF74AFB52
:105270000FE10420012804D0022842D0042872D172
:1052800089E0606CFF283BD100BF00BF00BFFAF788
:105290007FFF814600BFFBF7EFFE00BF3A48007872
:1052A000401E3949087008460078D0B9FEF7C0FFA3
:1052B0003748008800280BDD00BFFBF7F7FE00BF72
:1052C0004846FAF769FF00BF00BFFEF775FF11E01F
:1052D00000BFFBF7EBFE00BF4846FAF75DFF00BFDB
:1052E00008E000BFFBF7E2FE00BF4846FAF754FFB4
:1052F00000BF00BF00BF46F6C55028800020B9E6B9
:105300008BE04FF6FF71606C884243D100BF00BF55
:1053100000BFFAF73DFF814600BFFBF7ADFE00BFBF
:1053200019480078401E1849087008460078D8B916
:10533000FEF77EFF1648008800280BDD00BFFBF754
:10534000B5FE00BF4846FAF727FF00BF00BFFEF7D3
:1053500033FF12E000BFFBF7A9FE00BF4846FAF793
:105360001BFF00BF09E057E000BFFBF79FFE00BF37
:105370004846FAF711FF00BF00BF00BF46F6C55010
:105380002880002076E6000074010020CC01002077
:105390003801002041E0606C401CD8BB00BF00BF5A
:1053A00000BFFAF7F5FE814600BFFBF765FE00BFC0
:1053B00058480078401E5749087008460078D0B910
:1053C000FEF736FF5448008800280BDD00BFFBF7CE
:1053D0006DFE00BF4846FAF7DFFE00BF00BFFEF7D4
:1053E000EBFE11E000BFFBF761FE00BF4846FAF795
:1053F000D3FE00BF08E000BFFBF758FE00BF4846E1
:10540000FAF7CAFE00BF00BF00BF46F6C5502880AD
:1054100000202FE6FFE700E000BF00BF606C401CEB
:105420006064666C00BF00BF00BFFAF7B1FE814642
:1054300000BFFBF721FE00BF36480078401E35490B
:10544000087008460078D0B9FEF7F2FE32480088AE
:1054500000280BDD00BFFBF729FE00BF4846FAF726
:105460009BFE00BF00BFFEF7A7FE11E000BFFBF7E9
:105470001DFE00BF4846FAF78FFE00BF08E000BFE0
:10548000FBF714FE00BF4846FAF786FE00BF00BFD8
:1054900000BF3BE000BF00BF00BFFAF779FE8146C6
:1054A00000BFFBF7E9FD00BF1A480078401E19490C
:1054B000087008460078D0B9FEF7BAFE1648008892
:1054C00000280BDD00BFFBF7F1FD00BF4846FAF7EF
:1054D00063FE00BF00BFFEF76FFE11E000BFFBF7E9
:1054E000E5FD00BF4846FAF757FE00BF08E000BFE1
:1054F000FBF7DCFD00BF4846FAF74EFE00BF00BFD9
:1055000000BF46F62D602880002600BF00BF304651
:10551000B0E50000740100203801002070B5044699
:105520000D46002600BF00BFFAF732FE064600BF58
:10553000FBF7A2FD00BF0CB95A480468594800683F
:10554000844210D15848007800280CDD00BFFBF7DA
:10555000ADFD00BF3046FAF71FFE00BF00BF46F6A4
:105560006350288070BD0020288094F836000828F9
:1055700073D2DFE800F0044252627374757600BFA4
:1055800049480078401C48490870084600780128BE
:1055900001D1FEF73FFE00BFFBF788FD00BF30469C
:1055A000FAF7FAFD00BF00BF00BF042084F8360000
:1055B000012084F88A002046FEF7D0FD00BF00BF1E
:1055C00000BFFAF7E5FD064600BFFBF755FD00BF3B
:1055D00035480078401E344908700846007808B9FC
:1055E000FEF726FE00BFFBF761FD00BF3046FAF76D
:1055F000D3FD00BF00BF00BF4FE0052084F8360098
:10560000012084F88A0000BFFBF750FD00BF304640
:10561000FAF7C2FD00BF00BF3FE0062084F8360065
:10562000012084F88A0000BFFBF740FD00BF304630
:10563000FAF7B2FD00BF00BF2FE0072084F8360064
:10564000012084F88A0000BFFBF730FD00BF304620
:10565000FAF7A2FD00BF00BF1FE011E000BF00BFCE
:1056600000BF94F88A00401C84F88A0000BFFBF752
:105670001DFD00BF3046FAF78FFD00BF00BF0CE0F4
:1056800000BFFBF713FD00BF3046FAF785FD00BFF2
:1056900000BF46F62D60288064E700BFFCF732F9B2
:1056A00000BF5FE7CC01002074010020002108E06A
:1056B000064A02EBC100002202608280C2804A1CBE
:1056C00091B2034A12889142F2DB7047743700208E
:1056D000447600082DE9F04F0C4616461D46042E70
:1056E0001ED1DFF8A091D9F80090A4EB0909A9F127
:1056F000010313F5803F0DD94FF00009C0F84C901D
:10570000C0F85090C0F81C9047F27E29A5F8009090
:10571000BDE8F08FC46403F10109C0F850903FE088
:1057200084B3082E25D1D0F8489009EB0407DFF8A0
:105730005491D9F80090A7EB0909A9F10103A342FC
:1057400001D2C76406E0DFF83C91D9F80090A1448B
:10575000C0F84C90DFF82CA1D0F84C90DAF800A0FB
:10576000A9EB0A09C0F85090D0F84C90C0F84890C6
:1057700016E0DFF81091D9F80090A144C0F84C90E1
:1057800004650DE0FFE74FF00009C0F84C90C0F849
:105790005090C0F81C9047F27E29A5F80090B7E71A
:1057A000DFF8E4A0BAF800A0D0F84C90B9FBFAFBFF
:1057B0000AFB1B991FFA89F8DFF8D09009EBC802A1
:1057C000B2F80490B9F1000F0BD14FF00009C0F806
:1057D0001490C0F8189010604FF00109A2F80490DE
:1057E0003EE0116834E0DFF89CA0D1F84C90DAF884
:1057F00000A0A9EB0A09C1F85090D0F85090D1F858
:1058000050A0D1450ED9D1F81490B9F1000F01D0B4
:1058100049691DE04FF00009C0F8149081614861AA
:10582000002115E0D1F81890B9F1000F07D14FF021
:105830000009C0F8189041618861106007E0D1F854
:1058400018C0C0F818C04161CCF81400886100216C
:105850000029C8D1B2F8049009F10109A2F8049016
:10586000B2F80690B2F804A0D14503DAB2F8049079
:10587000A2F80690C2614FF00009A5F8009000BFA1
:1058800046E70000AC010020447600087437002091
:1058900010B5C269BAB1002404651468844205D108
:1058A0004169116039B100248C6104E08169436968
:1058B0004B6103B19961002444618461C461C46493
:1058C0009488641E948010BD002006E0054A02EB17
:1058D000C0010022CA80421C90B2034A1288904242
:1058E000F4DB704774370020447600082DE9F05F40
:1058F0004FF0000B00BF00BF00BFFAF749FC834622
:1059000000BFFBF7B9FB00BF7A480078401C79491B
:10591000087008460078012801D1FEF77BFC00BF23
:10592000FBF7C4FB00BF5846FAF736FC00BF00BFC8
:1059300000BFFBF72FFC05466F480068401C6E490E
:105940000860084600686D490988B0FBF1F201FB68
:1059500012001FFA80FA6A4800EBCA08D8F8004023
:10596000002782E0002C7FD0D4F8149094F8360001
:10597000082875D2DFE800F00408051B063D075033
:1059800000BF00BF00BF6CE05B49E06C0968401AD3
:1059900020655949E06C0968884206D1002084F8E6
:1059A00036002046FFF70EFA00E0012759E0524981
:1059B000E06C0968401A20654F49E06C096888422C
:1059C00015D10020E065A4F86000FBF7E3FB20643C
:1059D0002046FEF779F92046FFF7F4F90020343429
:1059E000A07003206070002004F8340900E0012753
:1059F00037E04149E06C0968401A20653E49E06C97
:105A00000968884206D1042084F836002046FFF752
:105A10003FFF00E0012724E03749E06C0968401AA5
:105A200020653549E06C0968884217D10020E0659F
:105A3000A4F86000FBF7AEFB20642046FEF744F9B3
:105A40002046FFF725FF04203434A0700320607047
:105A5000002004F8340902E006E001E0012700E03C
:105A600000BF00BF4C4600E00127002F3FF47AAF93
:105A7000FBF790FB461B23480068B04201D2214847
:105A8000066000BF00BF00BFFAF782FB834600BF7D
:105A9000FBF7F2FA00BF17480078401E154908705E
:105AA00008460078D0B9FEF7C3FB174800880028E5
:105AB0000BDD00BFFBF7FAFA00BF5846FAF76CFBA4
:105AC00000BF00BFFEF778FB11E000BFFBF7EEFA66
:105AD00000BF5846FAF760FB00BF08E000BFFBF7C5
